{
  "_format": "hh-sol-artifact-1",
  "contractName": "CommunityNFT",
  "sourceName": "contracts/nft.sol",
  "abi": [
    {
      "inputs": [
        {
          "internalType": "uint256",
          "name": "tokenSupply",
          "type": "uint256"
        },
        {
          "internalType": "string",
          "name": "name",
          "type": "string"
        },
        {
          "internalType": "string",
          "name": "symbol",
          "type": "string"
        },
        {
          "internalType": "string",
          "name": "_collectionURI",
          "type": "string"
        }
      ],
      "stateMutability": "nonpayable",
      "type": "constructor"
    },
    {
      "anonymous": false,
      "inputs": [
        {
          "indexed": true,
          "internalType": "address",
          "name": "owner",
          "type": "address"
        },
        {
          "indexed": true,
          "internalType": "address",
          "name": "approved",
          "type": "address"
        },
        {
          "indexed": true,
          "internalType": "uint256",
          "name": "tokenId",
          "type": "uint256"
        }
      ],
      "name": "Approval",
      "type": "event"
    },
    {
      "anonymous": false,
      "inputs": [
        {
          "indexed": true,
          "internalType": "address",
          "name": "owner",
          "type": "address"
        },
        {
          "indexed": true,
          "internalType": "address",
          "name": "operator",
          "type": "address"
        },
        {
          "indexed": false,
          "internalType": "bool",
          "name": "approved",
          "type": "bool"
        }
      ],
      "name": "ApprovalForAll",
      "type": "event"
    },
    {
      "anonymous": false,
      "inputs": [
        {
          "indexed": true,
          "internalType": "address",
          "name": "previousOwner",
          "type": "address"
        },
        {
          "indexed": true,
          "internalType": "address",
          "name": "newOwner",
          "type": "address"
        }
      ],
      "name": "OwnershipTransferred",
      "type": "event"
    },
    {
      "anonymous": false,
      "inputs": [
        {
          "indexed": true,
          "internalType": "address",
          "name": "from",
          "type": "address"
        },
        {
          "indexed": true,
          "internalType": "address",
          "name": "to",
          "type": "address"
        },
        {
          "indexed": true,
          "internalType": "uint256",
          "name": "tokenId",
          "type": "uint256"
        }
      ],
      "name": "Transfer",
      "type": "event"
    },
    {
      "inputs": [],
      "name": "MAX_TOTAL_SUPPLY",
      "outputs": [
        {
          "internalType": "uint256",
          "name": "",
          "type": "uint256"
        }
      ],
      "stateMutability": "view",
      "type": "function"
    },
    {
      "inputs": [
        {
          "internalType": "address",
          "name": "",
          "type": "address"
        }
      ],
      "name": "addressToTokenId",
      "outputs": [
        {
          "internalType": "uint256",
          "name": "",
          "type": "uint256"
        }
      ],
      "stateMutability": "view",
      "type": "function"
    },
    {
      "inputs": [],
      "name": "adminMerkleRoot",
      "outputs": [
        {
          "internalType": "bytes32",
          "name": "",
          "type": "bytes32"
        }
      ],
      "stateMutability": "view",
      "type": "function"
    },
    {
      "inputs": [
        {
          "internalType": "address",
          "name": "to",
          "type": "address"
        },
        {
          "internalType": "uint256",
          "name": "tokenId",
          "type": "uint256"
        }
      ],
      "name": "approve",
      "outputs": [],
      "stateMutability": "nonpayable",
      "type": "function"
    },
    {
      "inputs": [
        {
          "internalType": "address",
          "name": "owner",
          "type": "address"
        }
      ],
      "name": "balanceOf",
      "outputs": [
        {
          "internalType": "uint256",
          "name": "",
          "type": "uint256"
        }
      ],
      "stateMutability": "view",
      "type": "function"
    },
    {
      "inputs": [],
      "name": "contractURI",
      "outputs": [
        {
          "internalType": "string",
          "name": "",
          "type": "string"
        }
      ],
      "stateMutability": "view",
      "type": "function"
    },
    {
      "inputs": [
        {
          "internalType": "uint256",
          "name": "tokenId",
          "type": "uint256"
        }
      ],
      "name": "getApproved",
      "outputs": [
        {
          "internalType": "address",
          "name": "",
          "type": "address"
        }
      ],
      "stateMutability": "view",
      "type": "function"
    },
    {
      "inputs": [],
      "name": "getBaseURI",
      "outputs": [
        {
          "internalType": "string",
          "name": "",
          "type": "string"
        }
      ],
      "stateMutability": "view",
      "type": "function"
    },
    {
      "inputs": [],
      "name": "getLastTokenId",
      "outputs": [
        {
          "internalType": "uint256",
          "name": "",
          "type": "uint256"
        }
      ],
      "stateMutability": "view",
      "type": "function"
    },
    {
      "inputs": [
        {
          "internalType": "address",
          "name": "owner",
          "type": "address"
        },
        {
          "internalType": "address",
          "name": "operator",
          "type": "address"
        }
      ],
      "name": "isApprovedForAll",
      "outputs": [
        {
          "internalType": "bool",
          "name": "",
          "type": "bool"
        }
      ],
      "stateMutability": "view",
      "type": "function"
    },
    {
      "inputs": [],
      "name": "mint",
      "outputs": [
        {
          "internalType": "uint256",
          "name": "",
          "type": "uint256"
        }
      ],
      "stateMutability": "payable",
      "type": "function"
    },
    {
      "inputs": [],
      "name": "name",
      "outputs": [
        {
          "internalType": "string",
          "name": "",
          "type": "string"
        }
      ],
      "stateMutability": "view",
      "type": "function"
    },
    {
      "inputs": [],
      "name": "numReservedTokens",
      "outputs": [
        {
          "internalType": "uint256",
          "name": "",
          "type": "uint256"
        }
      ],
      "stateMutability": "view",
      "type": "function"
    },
    {
      "inputs": [],
      "name": "owner",
      "outputs": [
        {
          "internalType": "address",
          "name": "",
          "type": "address"
        }
      ],
      "stateMutability": "view",
      "type": "function"
    },
    {
      "inputs": [
        {
          "internalType": "uint256",
          "name": "tokenId",
          "type": "uint256"
        }
      ],
      "name": "ownerOf",
      "outputs": [
        {
          "internalType": "address",
          "name": "",
          "type": "address"
        }
      ],
      "stateMutability": "view",
      "type": "function"
    },
    {
      "inputs": [],
      "name": "renounceOwnership",
      "outputs": [],
      "stateMutability": "nonpayable",
      "type": "function"
    },
    {
      "inputs": [
        {
          "internalType": "address",
          "name": "from",
          "type": "address"
        },
        {
          "internalType": "address",
          "name": "to",
          "type": "address"
        },
        {
          "internalType": "uint256",
          "name": "tokenId",
          "type": "uint256"
        }
      ],
      "name": "safeTransferFrom",
      "outputs": [],
      "stateMutability": "nonpayable",
      "type": "function"
    },
    {
      "inputs": [
        {
          "internalType": "address",
          "name": "from",
          "type": "address"
        },
        {
          "internalType": "address",
          "name": "to",
          "type": "address"
        },
        {
          "internalType": "uint256",
          "name": "tokenId",
          "type": "uint256"
        },
        {
          "internalType": "bytes",
          "name": "data",
          "type": "bytes"
        }
      ],
      "name": "safeTransferFrom",
      "outputs": [],
      "stateMutability": "nonpayable",
      "type": "function"
    },
    {
      "inputs": [
        {
          "internalType": "bytes32",
          "name": "merkleRoot",
          "type": "bytes32"
        }
      ],
      "name": "setAdminMerkleRoot",
      "outputs": [],
      "stateMutability": "nonpayable",
      "type": "function"
    },
    {
      "inputs": [
        {
          "internalType": "address",
          "name": "operator",
          "type": "address"
        },
        {
          "internalType": "bool",
          "name": "approved",
          "type": "bool"
        }
      ],
      "name": "setApprovalForAll",
      "outputs": [],
      "stateMutability": "nonpayable",
      "type": "function"
    },
    {
      "inputs": [
        {
          "internalType": "string",
          "name": "_baseURI",
          "type": "string"
        }
      ],
      "name": "setBaseURI",
      "outputs": [],
      "stateMutability": "nonpayable",
      "type": "function"
    },
    {
      "inputs": [
        {
          "internalType": "string",
          "name": "_collectionURI",
          "type": "string"
        }
      ],
      "name": "setCollectionURI",
      "outputs": [],
      "stateMutability": "nonpayable",
      "type": "function"
    },
    {
      "inputs": [
        {
          "internalType": "address",
          "name": "_user",
          "type": "address"
        },
        {
          "internalType": "string",
          "name": "_tokenURI",
          "type": "string"
        }
      ],
      "name": "setTokenURI",
      "outputs": [],
      "stateMutability": "nonpayable",
      "type": "function"
    },
    {
      "inputs": [
        {
          "internalType": "bytes4",
          "name": "interfaceId",
          "type": "bytes4"
        }
      ],
      "name": "supportsInterface",
      "outputs": [
        {
          "internalType": "bool",
          "name": "",
          "type": "bool"
        }
      ],
      "stateMutability": "view",
      "type": "function"
    },
    {
      "inputs": [],
      "name": "symbol",
      "outputs": [
        {
          "internalType": "string",
          "name": "",
          "type": "string"
        }
      ],
      "stateMutability": "view",
      "type": "function"
    },
    {
      "inputs": [
        {
          "internalType": "uint256",
          "name": "",
          "type": "uint256"
        }
      ],
      "name": "tokenIdtoURI",
      "outputs": [
        {
          "internalType": "string",
          "name": "",
          "type": "string"
        }
      ],
      "stateMutability": "view",
      "type": "function"
    },
    {
      "inputs": [
        {
          "internalType": "uint256",
          "name": "tokenId",
          "type": "uint256"
        }
      ],
      "name": "tokenURI",
      "outputs": [
        {
          "internalType": "string",
          "name": "",
          "type": "string"
        }
      ],
      "stateMutability": "view",
      "type": "function"
    },
    {
      "inputs": [
        {
          "internalType": "address",
          "name": "from",
          "type": "address"
        },
        {
          "internalType": "address",
          "name": "to",
          "type": "address"
        },
        {
          "internalType": "uint256",
          "name": "tokenId",
          "type": "uint256"
        }
      ],
      "name": "transferFrom",
      "outputs": [],
      "stateMutability": "nonpayable",
      "type": "function"
    },
    {
      "inputs": [
        {
          "internalType": "address",
          "name": "newOwner",
          "type": "address"
        }
      ],
      "name": "transferOwnership",
      "outputs": [],
      "stateMutability": "nonpayable",
      "type": "function"
    },
    {
      "inputs": [],
      "name": "withdraw",
      "outputs": [],
      "stateMutability": "nonpayable",
      "type": "function"
    },
    {
      "inputs": [
        {
          "internalType": "contract IERC20",
          "name": "token",
          "type": "address"
        }
      ],
      "name": "withdrawTokens",
      "outputs": [],
      "stateMutability": "nonpayable",
      "type": "function"
    },
    {
      "stateMutability": "payable",
      "type": "receive"
    }
  ],
  "bytecode": "0x60806040523480156200001157600080fd5b5060405162003a1d38038062003a1d8339818101604052810190620000379190620002c6565b82828160009080519060200190620000519291906200018d565b5080600190805190602001906200006a9291906200018d565b5050506200008d62000081620000bf60201b60201c565b620000c760201b60201c565b600160078190555083600d8190555080600a9080519060200190620000b49291906200018d565b505050505062000511565b600033905090565b6000600660009054906101000a900473ffffffffffffffffffffffffffffffffffffffff16905081600660006101000a81548173ffffffffffffffffffffffffffffffffffffffff021916908373ffffffffffffffffffffffffffffffffffffffff1602179055508173ffffffffffffffffffffffffffffffffffffffff168173ffffffffffffffffffffffffffffffffffffffff167f8be0079c531659141344cd1fd0a4f28419497f9722a3daafe3b4186f6b6457e060405160405180910390a35050565b8280546200019b906200041c565b90600052602060002090601f016020900481019282620001bf57600085556200020b565b82601f10620001da57805160ff19168380011785556200020b565b828001600101855582156200020b579182015b828111156200020a578251825591602001919060010190620001ed565b5b5090506200021a91906200021e565b5090565b5b80821115620002395760008160009055506001016200021f565b5090565b6000620002546200024e84620003a6565b6200037d565b9050828152602081018484840111156200026d57600080fd5b6200027a848285620003e6565b509392505050565b600082601f8301126200029457600080fd5b8151620002a68482602086016200023d565b91505092915050565b600081519050620002c081620004f7565b92915050565b60008060008060808587031215620002dd57600080fd5b6000620002ed87828801620002af565b945050602085015167ffffffffffffffff8111156200030b57600080fd5b620003198782880162000282565b935050604085015167ffffffffffffffff8111156200033757600080fd5b620003458782880162000282565b925050606085015167ffffffffffffffff8111156200036357600080fd5b620003718782880162000282565b91505092959194509250565b6000620003896200039c565b905062000397828262000452565b919050565b6000604051905090565b600067ffffffffffffffff821115620003c457620003c3620004b7565b5b620003cf82620004e6565b9050602081019050919050565b6000819050919050565b60005b8381101562000406578082015181840152602081019050620003e9565b8381111562000416576000848401525b50505050565b600060028204905060018216806200043557607f821691505b602082108114156200044c576200044b62000488565b5b50919050565b6200045d82620004e6565b810181811067ffffffffffffffff821117156200047f576200047e620004b7565b5b80604052505050565b7f4e487b7100000000000000000000000000000000000000000000000000000000600052602260045260246000fd5b7f4e487b7100000000000000000000000000000000000000000000000000000000600052604160045260246000fd5b6000601f19601f8301169050919050565b6200050281620003dc565b81146200050e57600080fd5b50565b6134fc80620005216000396000f3fe6080604052600436106101dc5760003560e01c80636511bf2e11610102578063a22cb46511610095578063e8a3d48511610064578063e8a3d48514610694578063e985e9c5146106bf578063f2fde38b146106fc578063f771686614610725576101e3565b8063a22cb465146105da578063b58b799214610603578063b88d4fde1461062e578063c87b56dd14610657576101e3565b806383c4c00d116100d157806383c4c00d146105305780638da5cb5b1461055b57806395d89b411461058657806398d7352f146105b1576101e3565b80636511bf2e1461047457806370a08231146104b1578063714c5398146104ee578063715018a614610519576101e3565b80632639f4601161017a57806342842e0e1161014957806342842e0e146103bc57806349df728c146103e557806355f804b31461040e5780636352211e14610437576101e3565b80632639f460146103285780632f2fe7211461035157806333039d3d1461037a5780633ccfd60b146103a5576101e3565b8063095ea7b3116101b6578063095ea7b31461028d57806311e3dbca146102b65780631249c58b146102e157806323b872dd146102ff576101e3565b806301ffc9a7146101e857806306fdde0314610225578063081812fc14610250576101e3565b366101e357005b600080fd5b3480156101f457600080fd5b5061020f600480360381019061020a9190612605565b610762565b60405161021c9190612aa4565b60405180910390f35b34801561023157600080fd5b5061023a610844565b6040516102479190612ada565b60405180910390f35b34801561025c57600080fd5b50610277600480360381019061027291906126c1565b6108d6565b6040516102849190612a14565b60405180910390f35b34801561029957600080fd5b506102b460048036038101906102af9190612577565b61091c565b005b3480156102c257600080fd5b506102cb610a34565b6040516102d89190612d1c565b60405180910390f35b6102e9610a3a565b6040516102f69190612d1c565b60405180910390f35b34801561030b57600080fd5b506103266004803603810190610321919061241d565b610b4b565b005b34801561033457600080fd5b5061034f600480360381019061034a9190612680565b610bab565b005b34801561035d57600080fd5b50610378600480360381019061037391906125dc565b610bcd565b005b34801561038657600080fd5b5061038f610bdf565b60405161039c9190612d1c565b60405180910390f35b3480156103b157600080fd5b506103ba610be5565b005b3480156103c857600080fd5b506103e360048036038101906103de919061241d565b610c3c565b005b3480156103f157600080fd5b5061040c60048036038101906104079190612657565b610c5c565b005b34801561041a57600080fd5b5061043560048036038101906104309190612680565b610d83565b005b34801561044357600080fd5b5061045e600480360381019061045991906126c1565b610da5565b60405161046b9190612a14565b60405180910390f35b34801561048057600080fd5b5061049b600480360381019061049691906123b8565b610e57565b6040516104a89190612d1c565b60405180910390f35b3480156104bd57600080fd5b506104d860048036038101906104d391906123b8565b610e6f565b6040516104e59190612d1c565b60405180910390f35b3480156104fa57600080fd5b50610503610f27565b6040516105109190612ada565b60405180910390f35b34801561052557600080fd5b5061052e610fb9565b005b34801561053c57600080fd5b50610545610fcd565b6040516105529190612d1c565b60405180910390f35b34801561056757600080fd5b50610570610fde565b60405161057d9190612a14565b60405180910390f35b34801561059257600080fd5b5061059b611008565b6040516105a89190612ada565b60405180910390f35b3480156105bd57600080fd5b506105d860048036038101906105d39190612523565b61109a565b005b3480156105e657600080fd5b5061060160048036038101906105fc91906124e7565b611113565b005b34801561060f57600080fd5b50610618611129565b6040516106259190612abf565b60405180910390f35b34801561063a57600080fd5b506106556004803603810190610650919061246c565b61112f565b005b34801561066357600080fd5b5061067e600480360381019061067991906126c1565b611191565b60405161068b9190612ada565b60405180910390f35b3480156106a057600080fd5b506106a961127e565b6040516106b69190612ada565b60405180910390f35b3480156106cb57600080fd5b506106e660048036038101906106e191906123e1565b611310565b6040516106f39190612aa4565b60405180910390f35b34801561070857600080fd5b50610723600480360381019061071e91906123b8565b6113a4565b005b34801561073157600080fd5b5061074c600480360381019061074791906126c1565b611428565b6040516107599190612ada565b60405180910390f35b60007f80ac58cd000000000000000000000000000000000000000000000000000000007bffffffffffffffffffffffffffffffffffffffffffffffffffffffff1916827bffffffffffffffffffffffffffffffffffffffffffffffffffffffff1916148061082d57507f5b5e139f000000000000000000000000000000000000000000000000000000007bffffffffffffffffffffffffffffffffffffffffffffffffffffffff1916827bffffffffffffffffffffffffffffffffffffffffffffffffffffffff1916145b8061083d575061083c826114c8565b5b9050919050565b60606000805461085390612f52565b80601f016020809104026020016040519081016040528092919081815260200182805461087f90612f52565b80156108cc5780601f106108a1576101008083540402835291602001916108cc565b820191906000526020600020905b8154815290600101906020018083116108af57829003601f168201915b5050505050905090565b60006108e182611532565b6004600083815260200190815260200160002060009054906101000a900473ffffffffffffffffffffffffffffffffffffffff169050919050565b600061092782610da5565b90508073ffffffffffffffffffffffffffffffffffffffff168373ffffffffffffffffffffffffffffffffffffffff161415610998576040517f08c379a000000000000000000000000000000000000000000000000000000000815260040161098f90612c9c565b60405180910390fd5b8073ffffffffffffffffffffffffffffffffffffffff166109b761157d565b73ffffffffffffffffffffffffffffffffffffffff1614806109e657506109e5816109e061157d565b611310565b5b610a25576040517f08c379a0000000000000000000000000000000000000000000000000000000008152600401610a1c90612c1c565b60405180910390fd5b610a2f8383611585565b505050565b600b5481565b600060026007541415610a82576040517f08c379a0000000000000000000000000000000000000000000000000000000008152600401610a7990612cdc565b60405180910390fd5b6002600781905550600d54610a97600861163e565b1115610ad8576040517f08c379a0000000000000000000000000000000000000000000000000000000008152600401610acf90612bbc565b60405180910390fd5b6000610ae261164c565b905080600e60003373ffffffffffffffffffffffffffffffffffffffff1673ffffffffffffffffffffffffffffffffffffffff16815260200190815260200160002081905550610b323382611667565b610b3c6008611685565b80915050600160078190555090565b610b5c610b5661157d565b8261169b565b610b9b576040517f08c379a0000000000000000000000000000000000000000000000000000000008152600401610b9290612cbc565b60405180910390fd5b610ba6838383611730565b505050565b610bb3611997565b80600a9080519060200190610bc9929190612188565b5050565b610bd5611997565b80600c8190555050565b600d5481565b610bed611997565b60004790503373ffffffffffffffffffffffffffffffffffffffff166108fc829081150290604051600060405180830381858888f19350505050158015610c38573d6000803e3d6000fd5b5050565b610c578383836040518060200160405280600081525061112f565b505050565b610c64611997565b60008173ffffffffffffffffffffffffffffffffffffffff166370a08231306040518263ffffffff1660e01b8152600401610c9f9190612a14565b60206040518083038186803b158015610cb757600080fd5b505afa158015610ccb573d6000803e3d6000fd5b505050506040513d601f19601f82011682018060405250810190610cef91906126ea565b90508173ffffffffffffffffffffffffffffffffffffffff1663a9059cbb33836040518363ffffffff1660e01b8152600401610d2c929190612a7b565b602060405180830381600087803b158015610d4657600080fd5b505af1158015610d5a573d6000803e3d6000fd5b505050506040513d601f19601f82011682018060405250810190610d7e91906125b3565b505050565b610d8b611997565b8060099080519060200190610da1929190612188565b5050565b6000806002600084815260200190815260200160002060009054906101000a900473ffffffffffffffffffffffffffffffffffffffff169050600073ffffffffffffffffffffffffffffffffffffffff168173ffffffffffffffffffffffffffffffffffffffff161415610e4e576040517f08c379a0000000000000000000000000000000000000000000000000000000008152600401610e4590612c7c565b60405180910390fd5b80915050919050565b600e6020528060005260406000206000915090505481565b60008073ffffffffffffffffffffffffffffffffffffffff168273ffffffffffffffffffffffffffffffffffffffff161415610ee0576040517f08c379a0000000000000000000000000000000000000000000000000000000008152600401610ed790612bdc565b60405180910390fd5b600360008373ffffffffffffffffffffffffffffffffffffffff1673ffffffffffffffffffffffffffffffffffffffff168152602001908152602001600020549050919050565b606060098054610f3690612f52565b80601f0160208091040260200160405190810160405280929190818152602001828054610f6290612f52565b8015610faf5780601f10610f8457610100808354040283529160200191610faf565b820191906000526020600020905b815481529060010190602001808311610f9257829003601f168201915b5050505050905090565b610fc1611997565b610fcb6000611a15565b565b6000610fd9600861163e565b905090565b6000600660009054906101000a900473ffffffffffffffffffffffffffffffffffffffff16905090565b60606001805461101790612f52565b80601f016020809104026020016040519081016040528092919081815260200182805461104390612f52565b80156110905780601f1061106557610100808354040283529160200191611090565b820191906000526020600020905b81548152906001019060200180831161107357829003601f168201915b5050505050905090565b6110a2611997565b6000600e60008473ffffffffffffffffffffffffffffffffffffffff1673ffffffffffffffffffffffffffffffffffffffff16815260200190815260200160002054905081600f6000838152602001908152602001600020908051906020019061110d929190612188565b50505050565b61112561111e61157d565b8383611adb565b5050565b600c5481565b61114061113a61157d565b8361169b565b61117f576040517f08c379a000000000000000000000000000000000000000000000000000000000815260040161117690612cbc565b60405180910390fd5b61118b84848484611c48565b50505050565b606061119c82611ca4565b6111db576040517f08c379a00000000000000000000000000000000000000000000000000000000081526004016111d290612bfc565b60405180910390fd5b600f600083815260200190815260200160002080546111f990612f52565b80601f016020809104026020016040519081016040528092919081815260200182805461122590612f52565b80156112725780601f1061124757610100808354040283529160200191611272565b820191906000526020600020905b81548152906001019060200180831161125557829003601f168201915b50505050509050919050565b6060600a805461128d90612f52565b80601f01602080910402602001604051908101604052809291908181526020018280546112b990612f52565b80156113065780601f106112db57610100808354040283529160200191611306565b820191906000526020600020905b8154815290600101906020018083116112e957829003601f168201915b5050505050905090565b6000600560008473ffffffffffffffffffffffffffffffffffffffff1673ffffffffffffffffffffffffffffffffffffffff16815260200190815260200160002060008373ffffffffffffffffffffffffffffffffffffffff1673ffffffffffffffffffffffffffffffffffffffff16815260200190815260200160002060009054906101000a900460ff16905092915050565b6113ac611997565b600073ffffffffffffffffffffffffffffffffffffffff168173ffffffffffffffffffffffffffffffffffffffff16141561141c576040517f08c379a000000000000000000000000000000000000000000000000000000000815260040161141390612b1c565b60405180910390fd5b61142581611a15565b50565b600f602052806000526040600020600091509050805461144790612f52565b80601f016020809104026020016040519081016040528092919081815260200182805461147390612f52565b80156114c05780601f10611495576101008083540402835291602001916114c0565b820191906000526020600020905b8154815290600101906020018083116114a357829003601f168201915b505050505081565b60007f01ffc9a7000000000000000000000000000000000000000000000000000000007bffffffffffffffffffffffffffffffffffffffffffffffffffffffff1916827bffffffffffffffffffffffffffffffffffffffffffffffffffffffff1916149050919050565b61153b81611ca4565b61157a576040517f08c379a000000000000000000000000000000000000000000000000000000000815260040161157190612c7c565b60405180910390fd5b50565b600033905090565b816004600083815260200190815260200160002060006101000a81548173ffffffffffffffffffffffffffffffffffffffff021916908373ffffffffffffffffffffffffffffffffffffffff160217905550808273ffffffffffffffffffffffffffffffffffffffff166115f883610da5565b73ffffffffffffffffffffffffffffffffffffffff167f8c5be1e5ebec7d5bd14f71427d1e84f3dd0314c0f7b2291e5b200ac8c7c3b92560405160405180910390a45050565b600081600001549050919050565b60006116586008611685565b611662600861163e565b905090565b611681828260405180602001604052806000815250611d10565b5050565b6001816000016000828254019250508190555050565b6000806116a783610da5565b90508073ffffffffffffffffffffffffffffffffffffffff168473ffffffffffffffffffffffffffffffffffffffff1614806116e957506116e88185611310565b5b8061172757508373ffffffffffffffffffffffffffffffffffffffff1661170f846108d6565b73ffffffffffffffffffffffffffffffffffffffff16145b91505092915050565b8273ffffffffffffffffffffffffffffffffffffffff1661175082610da5565b73ffffffffffffffffffffffffffffffffffffffff16146117a6576040517f08c379a000000000000000000000000000000000000000000000000000000000815260040161179d90612b3c565b60405180910390fd5b600073ffffffffffffffffffffffffffffffffffffffff168273ffffffffffffffffffffffffffffffffffffffff161415611816576040517f08c379a000000000000000000000000000000000000000000000000000000000815260040161180d90612b7c565b60405180910390fd5b611821838383611d6b565b61182c600082611585565b6001600360008573ffffffffffffffffffffffffffffffffffffffff1673ffffffffffffffffffffffffffffffffffffffff168152602001908152602001600020600082825461187c9190612e4c565b925050819055506001600360008473ffffffffffffffffffffffffffffffffffffffff1673ffffffffffffffffffffffffffffffffffffffff16815260200190815260200160002060008282546118d39190612df6565b92505081905550816002600083815260200190815260200160002060006101000a81548173ffffffffffffffffffffffffffffffffffffffff021916908373ffffffffffffffffffffffffffffffffffffffff160217905550808273ffffffffffffffffffffffffffffffffffffffff168473ffffffffffffffffffffffffffffffffffffffff167fddf252ad1be2c89b69c2b068fc378daa952ba7f163c4a11628f55a4df523b3ef60405160405180910390a4611992838383611dea565b505050565b61199f61157d565b73ffffffffffffffffffffffffffffffffffffffff166119bd610fde565b73ffffffffffffffffffffffffffffffffffffffff1614611a13576040517f08c379a0000000000000000000000000000000000000000000000000000000008152600401611a0a90612c5c565b60405180910390fd5b565b6000600660009054906101000a900473ffffffffffffffffffffffffffffffffffffffff16905081600660006101000a81548173ffffffffffffffffffffffffffffffffffffffff021916908373ffffffffffffffffffffffffffffffffffffffff1602179055508173ffffffffffffffffffffffffffffffffffffffff168173ffffffffffffffffffffffffffffffffffffffff167f8be0079c531659141344cd1fd0a4f28419497f9722a3daafe3b4186f6b6457e060405160405180910390a35050565b8173ffffffffffffffffffffffffffffffffffffffff168373ffffffffffffffffffffffffffffffffffffffff161415611b4a576040517f08c379a0000000000000000000000000000000000000000000000000000000008152600401611b4190612b9c565b60405180910390fd5b80600560008573ffffffffffffffffffffffffffffffffffffffff1673ffffffffffffffffffffffffffffffffffffffff16815260200190815260200160002060008473ffffffffffffffffffffffffffffffffffffffff1673ffffffffffffffffffffffffffffffffffffffff16815260200190815260200160002060006101000a81548160ff0219169083151502179055508173ffffffffffffffffffffffffffffffffffffffff168373ffffffffffffffffffffffffffffffffffffffff167f17307eab39ab6107e8899845ad3d59bd9653f200f220920489ca2b5937696c3183604051611c3b9190612aa4565b60405180910390a3505050565b611c53848484611730565b611c5f84848484611def565b611c9e576040517f08c379a0000000000000000000000000000000000000000000000000000000008152600401611c9590612afc565b60405180910390fd5b50505050565b60008073ffffffffffffffffffffffffffffffffffffffff166002600084815260200190815260200160002060009054906101000a900473ffffffffffffffffffffffffffffffffffffffff1673ffffffffffffffffffffffffffffffffffffffff1614159050919050565b611d1a8383611f86565b611d276000848484611def565b611d66576040517f08c379a0000000000000000000000000000000000000000000000000000000008152600401611d5d90612afc565b60405180910390fd5b505050565b600073ffffffffffffffffffffffffffffffffffffffff168373ffffffffffffffffffffffffffffffffffffffff1614611dda576040517f08c379a0000000000000000000000000000000000000000000000000000000008152600401611dd190612cfc565b60405180910390fd5b611de5838383612160565b505050565b505050565b6000611e108473ffffffffffffffffffffffffffffffffffffffff16612165565b15611f79578373ffffffffffffffffffffffffffffffffffffffff1663150b7a02611e3961157d565b8786866040518563ffffffff1660e01b8152600401611e5b9493929190612a2f565b602060405180830381600087803b158015611e7557600080fd5b505af1925050508015611ea657506040513d601f19601f82011682018060405250810190611ea3919061262e565b60015b611f29573d8060008114611ed6576040519150601f19603f3d011682016040523d82523d6000602084013e611edb565b606091505b50600081511415611f21576040517f08c379a0000000000000000000000000000000000000000000000000000000008152600401611f1890612afc565b60405180910390fd5b805181602001fd5b63150b7a0260e01b7bffffffffffffffffffffffffffffffffffffffffffffffffffffffff1916817bffffffffffffffffffffffffffffffffffffffffffffffffffffffff191614915050611f7e565b600190505b949350505050565b600073ffffffffffffffffffffffffffffffffffffffff168273ffffffffffffffffffffffffffffffffffffffff161415611ff6576040517f08c379a0000000000000000000000000000000000000000000000000000000008152600401611fed90612c3c565b60405180910390fd5b611fff81611ca4565b1561203f576040517f08c379a000000000000000000000000000000000000000000000000000000000815260040161203690612b5c565b60405180910390fd5b61204b60008383611d6b565b6001600360008473ffffffffffffffffffffffffffffffffffffffff1673ffffffffffffffffffffffffffffffffffffffff168152602001908152602001600020600082825461209b9190612df6565b92505081905550816002600083815260200190815260200160002060006101000a81548173ffffffffffffffffffffffffffffffffffffffff021916908373ffffffffffffffffffffffffffffffffffffffff160217905550808273ffffffffffffffffffffffffffffffffffffffff16600073ffffffffffffffffffffffffffffffffffffffff167fddf252ad1be2c89b69c2b068fc378daa952ba7f163c4a11628f55a4df523b3ef60405160405180910390a461215c60008383611dea565b5050565b505050565b6000808273ffffffffffffffffffffffffffffffffffffffff163b119050919050565b82805461219490612f52565b90600052602060002090601f0160209004810192826121b657600085556121fd565b82601f106121cf57805160ff19168380011785556121fd565b828001600101855582156121fd579182015b828111156121fc5782518255916020019190600101906121e1565b5b50905061220a919061220e565b5090565b5b8082111561222757600081600090555060010161220f565b5090565b600061223e61223984612d5c565b612d37565b90508281526020810184848401111561225657600080fd5b612261848285612f10565b509392505050565b600061227c61227784612d8d565b612d37565b90508281526020810184848401111561229457600080fd5b61229f848285612f10565b509392505050565b6000813590506122b68161343c565b92915050565b6000813590506122cb81613453565b92915050565b6000815190506122e081613453565b92915050565b6000813590506122f58161346a565b92915050565b60008135905061230a81613481565b92915050565b60008151905061231f81613481565b92915050565b600082601f83011261233657600080fd5b813561234684826020860161222b565b91505092915050565b60008135905061235e81613498565b92915050565b600082601f83011261237557600080fd5b8135612385848260208601612269565b91505092915050565b60008135905061239d816134af565b92915050565b6000815190506123b2816134af565b92915050565b6000602082840312156123ca57600080fd5b60006123d8848285016122a7565b91505092915050565b600080604083850312156123f457600080fd5b6000612402858286016122a7565b9250506020612413858286016122a7565b9150509250929050565b60008060006060848603121561243257600080fd5b6000612440868287016122a7565b9350506020612451868287016122a7565b92505060406124628682870161238e565b9150509250925092565b6000806000806080858703121561248257600080fd5b6000612490878288016122a7565b94505060206124a1878288016122a7565b93505060406124b28782880161238e565b925050606085013567ffffffffffffffff8111156124cf57600080fd5b6124db87828801612325565b91505092959194509250565b600080604083850312156124fa57600080fd5b6000612508858286016122a7565b9250506020612519858286016122bc565b9150509250929050565b6000806040838503121561253657600080fd5b6000612544858286016122a7565b925050602083013567ffffffffffffffff81111561256157600080fd5b61256d85828601612364565b9150509250929050565b6000806040838503121561258a57600080fd5b6000612598858286016122a7565b92505060206125a98582860161238e565b9150509250929050565b6000602082840312156125c557600080fd5b60006125d3848285016122d1565b91505092915050565b6000602082840312156125ee57600080fd5b60006125fc848285016122e6565b91505092915050565b60006020828403121561261757600080fd5b6000612625848285016122fb565b91505092915050565b60006020828403121561264057600080fd5b600061264e84828501612310565b91505092915050565b60006020828403121561266957600080fd5b60006126778482850161234f565b91505092915050565b60006020828403121561269257600080fd5b600082013567ffffffffffffffff8111156126ac57600080fd5b6126b884828501612364565b91505092915050565b6000602082840312156126d357600080fd5b60006126e18482850161238e565b91505092915050565b6000602082840312156126fc57600080fd5b600061270a848285016123a3565b91505092915050565b61271c81612e80565b82525050565b61272b81612e92565b82525050565b61273a81612e9e565b82525050565b600061274b82612dbe565b6127558185612dd4565b9350612765818560208601612f1f565b61276e81613042565b840191505092915050565b600061278482612dc9565b61278e8185612de5565b935061279e818560208601612f1f565b6127a781613042565b840191505092915050565b60006127bf603283612de5565b91506127ca82613053565b604082019050919050565b60006127e2602683612de5565b91506127ed826130a2565b604082019050919050565b6000612805602583612de5565b9150612810826130f1565b604082019050919050565b6000612828601c83612de5565b915061283382613140565b602082019050919050565b600061284b602483612de5565b915061285682613169565b604082019050919050565b600061286e601983612de5565b9150612879826131b8565b602082019050919050565b6000612891601d83612de5565b915061289c826131e1565b602082019050919050565b60006128b4602983612de5565b91506128bf8261320a565b604082019050919050565b60006128d7601283612de5565b91506128e282613259565b602082019050919050565b60006128fa603e83612de5565b915061290582613282565b604082019050919050565b600061291d602083612de5565b9150612928826132d1565b602082019050919050565b6000612940602083612de5565b915061294b826132fa565b602082019050919050565b6000612963601883612de5565b915061296e82613323565b602082019050919050565b6000612986602183612de5565b91506129918261334c565b604082019050919050565b60006129a9602e83612de5565b91506129b48261339b565b604082019050919050565b60006129cc601f83612de5565b91506129d7826133ea565b602082019050919050565b60006129ef601a83612de5565b91506129fa82613413565b602082019050919050565b612a0e81612f06565b82525050565b6000602082019050612a296000830184612713565b92915050565b6000608082019050612a446000830187612713565b612a516020830186612713565b612a5e6040830185612a05565b8181036060830152612a708184612740565b905095945050505050565b6000604082019050612a906000830185612713565b612a9d6020830184612a05565b9392505050565b6000602082019050612ab96000830184612722565b92915050565b6000602082019050612ad46000830184612731565b92915050565b60006020820190508181036000830152612af48184612779565b905092915050565b60006020820190508181036000830152612b15816127b2565b9050919050565b60006020820190508181036000830152612b35816127d5565b9050919050565b60006020820190508181036000830152612b55816127f8565b9050919050565b60006020820190508181036000830152612b758161281b565b9050919050565b60006020820190508181036000830152612b958161283e565b9050919050565b60006020820190508181036000830152612bb581612861565b9050919050565b60006020820190508181036000830152612bd581612884565b9050919050565b60006020820190508181036000830152612bf5816128a7565b9050919050565b60006020820190508181036000830152612c15816128ca565b9050919050565b60006020820190508181036000830152612c35816128ed565b9050919050565b60006020820190508181036000830152612c5581612910565b9050919050565b60006020820190508181036000830152612c7581612933565b9050919050565b60006020820190508181036000830152612c9581612956565b9050919050565b60006020820190508181036000830152612cb581612979565b9050919050565b60006020820190508181036000830152612cd58161299c565b9050919050565b60006020820190508181036000830152612cf5816129bf565b9050919050565b60006020820190508181036000830152612d15816129e2565b9050919050565b6000602082019050612d316000830184612a05565b92915050565b6000612d41612d52565b9050612d4d8282612f84565b919050565b6000604051905090565b600067ffffffffffffffff821115612d7757612d76613013565b5b612d8082613042565b9050602081019050919050565b600067ffffffffffffffff821115612da857612da7613013565b5b612db182613042565b9050602081019050919050565b600081519050919050565b600081519050919050565b600082825260208201905092915050565b600082825260208201905092915050565b6000612e0182612f06565b9150612e0c83612f06565b9250827fffffffffffffffffffffffffffffffffffffffffffffffffffffffffffffffff03821115612e4157612e40612fb5565b5b828201905092915050565b6000612e5782612f06565b9150612e6283612f06565b925082821015612e7557612e74612fb5565b5b828203905092915050565b6000612e8b82612ee6565b9050919050565b60008115159050919050565b6000819050919050565b60007fffffffff0000000000000000000000000000000000000000000000000000000082169050919050565b6000612edf82612e80565b9050919050565b600073ffffffffffffffffffffffffffffffffffffffff82169050919050565b6000819050919050565b82818337600083830152505050565b60005b83811015612f3d578082015181840152602081019050612f22565b83811115612f4c576000848401525b50505050565b60006002820490506001821680612f6a57607f821691505b60208210811415612f7e57612f7d612fe4565b5b50919050565b612f8d82613042565b810181811067ffffffffffffffff82111715612fac57612fab613013565b5b80604052505050565b7f4e487b7100000000000000000000000000000000000000000000000000000000600052601160045260246000fd5b7f4e487b7100000000000000000000000000000000000000000000000000000000600052602260045260246000fd5b7f4e487b7100000000000000000000000000000000000000000000000000000000600052604160045260246000fd5b6000601f19601f8301169050919050565b7f4552433732313a207472616e7366657220746f206e6f6e20455243373231526560008201527f63656976657220696d706c656d656e7465720000000000000000000000000000602082015250565b7f4f776e61626c653a206e6577206f776e657220697320746865207a65726f206160008201527f6464726573730000000000000000000000000000000000000000000000000000602082015250565b7f4552433732313a207472616e736665722066726f6d20696e636f72726563742060008201527f6f776e6572000000000000000000000000000000000000000000000000000000602082015250565b7f4552433732313a20746f6b656e20616c7265616479206d696e74656400000000600082015250565b7f4552433732313a207472616e7366657220746f20746865207a65726f2061646460008201527f7265737300000000000000000000000000000000000000000000000000000000602082015250565b7f4552433732313a20617070726f766520746f2063616c6c657200000000000000600082015250565b7f496e73756666696369656e7420746f6b656e732072656d61696e696e67000000600082015250565b7f4552433732313a2061646472657373207a65726f206973206e6f74206120766160008201527f6c6964206f776e65720000000000000000000000000000000000000000000000602082015250565b7f4e6f6e2d6578697374656e7420746f6b656e0000000000000000000000000000600082015250565b7f4552433732313a20617070726f76652063616c6c6572206973206e6f7420746f60008201527f6b656e206f776e6572206e6f7220617070726f76656420666f7220616c6c0000602082015250565b7f4552433732313a206d696e7420746f20746865207a65726f2061646472657373600082015250565b7f4f776e61626c653a2063616c6c6572206973206e6f7420746865206f776e6572600082015250565b7f4552433732313a20696e76616c696420746f6b656e2049440000000000000000600082015250565b7f4552433732313a20617070726f76616c20746f2063757272656e74206f776e6560008201527f7200000000000000000000000000000000000000000000000000000000000000602082015250565b7f4552433732313a2063616c6c6572206973206e6f7420746f6b656e206f776e6560008201527f72206e6f7220617070726f766564000000000000000000000000000000000000602082015250565b7f5265656e7472616e637947756172643a207265656e7472616e742063616c6c00600082015250565b7f4572726f723a20746f6b656e20697320534f554c20424f554e44000000000000600082015250565b61344581612e80565b811461345057600080fd5b50565b61345c81612e92565b811461346757600080fd5b50565b61347381612e9e565b811461347e57600080fd5b50565b61348a81612ea8565b811461349557600080fd5b50565b6134a181612ed4565b81146134ac57600080fd5b50565b6134b881612f06565b81146134c357600080fd5b5056fea264697066735822122076814d81410762404ccf647a6f804bf1d973c2466b477ab726350a1db2b0fd4164736f6c63430008040033",
  "linkReferences": {},
  "deployedLinkReferences": {}
}